S01F00002E2F44656275672F6972715F68616E646C65725F657874692E733139C0
S315200000000248854600F072F8FEE7C04600C001208F
S3152000001080B500AF1C4B00221A601C4B1A681B4B84
S315200000201B490A401A60194B1A68184B19490A438A
S315200000301A60194B1A68184B802189000A431A60E6
S31520000040164B1A68154B16490A401A60134B1A6844
S31520000050124B8021C9010A431A60124B1A68114BB0
S3152000006008210A431A60104B1A680F4B08210A43CD
S315200000701A600E4B1B680D4B00221A600C4B0D4A62
S315200000801A60C046BD4680BD00100240000C0240EA
S31520000090555500005555555500E100E008380140FA
S315200000A0FF0FFFFF003C01400C3C0140083C014093
S315200000B064C00120B900002080B500AF094B1B6841
S315200000C0082213400AD0084B1B685A1C064B1A609C
S315200000D0044B1A68034B08210A431A60C046BD46E2
S315200000E080BDC046143C01400801002080B500AF09
S315200000F0FFF78EFF024B1A68024BD2B21A70F9E74D
S3112000010008010020140C02400000000042
S70520000000DA
