S01800002E2F44656275672F657874695F697271322E733139D2
S315200000000248854600F094F8FEE7C04600C001206D
S3152000001080B500AF164B1B68012213400AD0154B42
S315200000201B685A1C134B1A60114B1A68104B01217E
S315200000300A431A600E4B1B680222134008D00D4B50
S3152000004000221A600A4B1A68094B02210A431A60D9
S31520000050074B1B680422134006D0074B1B78DBB2E4
S31520000060054ADB43DBB21370C046BD4680BDC046A1
S31520000070143C01404C010020150C024080B500AF15
S315200000801D4B18221A601D4B1A681C4B8021C90172
S315200000900A431A601A4B1B4A1A601B4B1B4A1A60EA
S315200000A01B4B1B881A4B00221A80194B1B889BB2AC
S315200000B0174A18490B439BB21380174B1A68164BE5
S315200000C00F210A431A60154B1A68144B0F210A4355
S315200000D01A60134B1A68124B0F218A431A60114B70
S315200000E0114A1A60114B1A68104B802189000A4365
S315200000F01A60C046BD4680BD3038024044380240B2
S3152000010008ED00E000C00120000C02405555555571
S315200001100838014044440000003C0140083C0140AE
S315200001200C3C014064C001201100002000E100E0E9
S3152000013080B500AFFFF7A2FF024B1A68024BD2B27E
S315200001401A70F9E74C010020140C02400000000050
S70520000000DA
