S01D00002E2F44656275672F67726170686963646973706C61792E73313990
S315200000000248854600F01AFBFEE7C04600C00120E4
S3152000001080B584B000AF0200FB1D1A700F4A0F2076
S315200000203B1812781A703B183A18127804218A4322
S315200000301A70FB1D1B785BB2042293435AB23B18FD
S315200000401B785BB213435AB23B181A70034A3B180B
S315200000501B781370C046BD4604B080BD1410024004
S3152000006080B584B000AF0200FB1D1A700F4A0F2026
S315200000703B1812781A703B183A18127804218A43D2
S315200000801A70FB1D1B785BB2DB435BB23A18127801
S3152000009052B213405AB23B181A70044A3B181B78C6
S315200000A01370C046BD4604B080BDC0461410024041
S315200000B080B582B000AF0200FB1D1A70FB1D1B78B5
S315200000C0182B1AD01DDC102B10D01ADC002B02D0D6
S315200000D0082B04D015E01820FFF7C2FF11E00820F6
S315200000E0FFF796FF1020FFF7BBFF0AE01020FFF76F
S315200000F08FFF0820FFF7B4FF03E01820FFF788FFE3
S31520000100C046C046BD4602B080BD80B582B000AFB5
S315200001104020FFF7A5FF144B144A1A600120FFF771
S315200001209FFF0220FFF774FF00F01EFA4020FFF722
S315200001306FFF00F019FA0E4B1B78DAB2FB1D7F21F8
S315200001408A431A704020FFF78BFF00F00DFAFB1D43
S315200001501B78002B00D0E9E7C046034B054A1A60FE
S31520000160C046BD4602B080BD001002405555000075
S31520000170111002405555555580B584B000AF020088
S31520000180FB1D1A704020FFF76BFF1C4B1C4A1A60A0
S315200001900320FFF73DFFFB1D1B781800FFF788FFA4
S315200001A000F0E2F94020FFF733FF00F0DDF9154AB1
S315200001B00F23FB1812781A704020FFF751FF0F4BC0
S315200001C0114A1A60FB1D1B780822134004D0082010
S315200001D0FFF76EFFFFF799FFFB1D1B7810221340D8
S315200001E004D01020FFF764FFFFF78FFF0F23FB18C3
S315200001F01B781800BD4604B080BDC04600100240E2
S3152000020055550000111002405555555580B582B000
S3152000021000AF0200FB1D1A70FB1D1B781800FFF7AC
S31520000220ABFFFB1D1B781800FFF7A6FF0300180085
S31520000230BD4602B080BD80B582B000AF0200FB1D76
S315200002401A70BB1D0A1C1A70154AFB1D1B781370E9
S31520000250BB1D1B781800FFF72BFF00F085F9402007
S31520000260FFF7D6FE00F080F94020FFF7F9FEBB1D10
S315200002701B780822134004D00820FFF719FFFFF748
S3152000028044FFBB1D1B781022134004D01020FFF71B
S315200002900FFFFFF73AFFC046BD4602B080BDC046FD
S315200002A01510024080B582B000AF0200FB1D1A7007
S315200002B0BB1D0A1C1A704020FFF7D2FEBB1D1B78FF
S315200002C01800FFF7F5FE0320FFF7CAFEBB1D1A78BC
S315200002D0FB1D1B7811001800FFF7ADFFC046BD4679
S315200002E002B080BD80B582B000AF0200FB1D1A703F
S315200002F0BB1D0A1C1A704020FFF7B2FEBB1D1B78DF
S315200003001800FFF7D5FE0120FFF782FE0220FFF737
S31520000310A7FEBB1D1A78FB1D1B7811001800FFF7DE
S315200003208AFFC046BD4602B080BD80B582B000AF10
S31520000330BB1D00221A7023E0BB1D1B7848225242A7
S315200003401343DBB218211800FFF7ACFF1821402019
S31520000350FFF7A8FFFB1D00221A7008E018210020D5
S31520000360FFF7C0FFFB1D1A78FB1D01321A70FB1D1B
S315200003701B783F2BF2D9BB1D1A78BB1D01321A7090
S31520000380BB1D1B78072BD7D9C046C046BD4602B039
S3152000039080BDF0B589B000AFF860B9607A60FB68BF
S315200003A0002B00DCB5E0BB68002B00DCB1E0FB686D
S315200003B0802B00DDADE0BB68402B00DDA9E0BB68EB
S315200003C0013B002B00DA0733DB10BB61BB68013B26
S315200003D0524A134004D5013B0822524213430133AB
S315200003E0072B2CD89A004E4BD3181B689F461F23E9
S315200003F0FB1801221A7022E01F23FB1802221A7012
S315200004001DE01F23FB1804221A7018E01F23FB1877
S3152000041008221A7013E01F23FB1810221A700EE010
S315200004201F23FB1820221A7009E01F23FB184022E5
S315200004301A7004E01F23FB1880221A70C0467B68BE
S31520000440002B05D11F22BB18BA181278D2431A7076
S31520000450FB68402B07DD1E23FB1810221A70FB6851
S31520000460413BFB6006E01E23FB1808221A70FB683E
S31520000470013BFB60FB685BB2402213435BB2DAB2FE
S315200004801E257B191B7819001000FFF70BFFBB698F
S315200004905BB24822524213435BB2DAB27B191B7815
S315200004A019001000FFF7FEFE1726BC197B191B78D2
S315200004B01800FFF7ABFE03002370FB685BB24022F7
S315200004C013435BB2DAB27B191B7819001000FFF7D1
S315200004D0E9FE7B68002B08D01F22BB18B918BA1971
S315200004E0097812780A431A7008E01F22BB18BA1836
S315200004F017217918127809780A401A701E23FB18DA
S315200005001A781F23FB181B7811001800FFF7EAFE44
S3152000051000E0C046BD4609B0F0BDC04607000080D9
S31520000520D806002080B500AF0C4B00221A600C4B79
S3152000053029221A600B4B00221A60084B05221A60EA
S31520000540C046064B1A6880235B021340F9D0034B42
S3152000055000221A60C046BD4680BDC04610E000E0BD
S3152000056014E000E018E000E080B500AFFFF7DAFF06
S31520000570FFF7D8FFC046BD4680BD80B584B000AF2A
S3152000058078600023FB600AE0FFF7CCFFFFF7CAFF85
S31520000590FFF7C8FFFFF7C6FFFB680133FB60FB6868
S315200005A07A689A42F0D8C046C046BD4604B080BD9F
S315200005B080B582B000AF78607B681800FFF7DDFF5A
S315200005C0C046BD4602B080BD80B500AF4020FFF7D3
S315200005D01FFD0A20FFF7D1FF7820FFF741FD1E20DF
S315200005E0FFF7E6FF2020FFF713FD6420FFF7E0FF6B
S315200005F018213E20FFF756FE18213F20FFF752FE16
S315200006001821C020FFF74EFE18214020FFF74AFE92
S315200006101821B820FFF746FE0020FFF749FDC04607
S31520000620BD4680BD80B500AF024B034A1A60C04666
S31520000630BD4680BD001002405555555580B582B047
S3152000064000AFFFF7EFFFFFF7BFFF00237B6008E057
S315200006507B6801220A211800FFF79BFE7B68013385
S315200006607B607B687F2BF3D900237B6008E07B6867
S31520000670012219000A20FFF78CFE7B6801337B607C
S315200006807B683F2BF3D9FA235B001800FFF790FF16
S3152000069000237B6008E07B6800220A211800FFF710
S315200006A078FE7B6801337B607B687F2BF3D9002340
S315200006B07B6008E07B68002219000A20FFF769FEAC
S315200006C07B6801337B607B683F2BF3D9C046C046ED
S315200006D0BD4602B080BDC046EE030020F8030020D0
S315200006E0020400200C040020160400202004002010
S30D200006F02A0400203404002036
S70520000000DA
