S01300002E2F44656275672F504F4E472E7331393A
S315200000000248854600F042FFFEE7C04600C00120B8
S3152000001080B584B000AF0200FB1D1A700F4A0F2076
S315200000203B18127D1A703B183A18127804218A431D
S315200000301A70FB1D1B785BB2042293435AB23B18FD
S315200000401B785BB213435AB23B181A70034A3B180B
S315200000501B781375C046BD4604B080BD0010024013
S3152000006080B584B000AF0200FB1D1A700F4A0F2026
S315200000703B18127D1A703B183A18127804218A43CD
S315200000801A70FB1D1B785BB2DB435BB23A18127801
S3152000009052B213405AB23B181A70044A3B181B78C6
S315200000A01375C046BD4604B080BDC0460010024050
S315200000B080B582B000AF0200FB1D1A70FB1D1B78B5
S315200000C0182B1AD01DDC102B10D01ADC002B02D0D6
S315200000D0082B04D015E01820FFF7C2FF11E00820F6
S315200000E0FFF796FF1020FFF7BBFF0AE01020FFF76F
S315200000F08FFF0820FFF7B4FF03E01820FFF788FFE3
S31520000100C046C046BD4602B080BD80B500AF402087
S31520000110FFF77EFF0A2000F00AFC7820FFF7A0FFF9
S315200001201E2000F01FFC2020FFF772FF642000F045
S3152000013019FC18213E2000F0DFF818213F2000F09E
S31520000140DBF81821C02000F0D7F81821402000F055
S31520000150D3F81821B82000F0CFF80020FFF7A8FF29
S31520000160C046BD4680BD80B582B000AF4020FFF7B7
S3152000017077FF144B144A1A600120FFF771FF022003
S31520000180FFF746FF00F0CAFB4020FFF741FF00F0D3
S31520000190C5FB0C4B5B7CDAB2FB1D7F218A431A70B0
S315200001A04020FFF75DFF00F0B9FBFB1D1B78002BFD
S315200001B000D0E9E7C046034B044A1A60C046BD4654
S315200001C002B080BD001002405555000055555555CA
S315200001D080B584B000AF0200FB1D1A704020FFF7E7
S315200001E03FFF1C4B1C4A1A600320FFF711FFFB1D23
S315200001F01B781800FFF75CFF00F090FB4020FFF70C
S3152000020007FF00F08BFB134A0F23FB18527C1A7052
S315200002104020FFF725FF0F4B104A1A60FB1D1B7865
S315200002200822134004D00820FFF742FFFFF79BFF68
S31520000230FB1D1B781022134004D01020FFF738FF37
S31520000240FFF791FF0F23FB181B781800BD4604B05B
S3152000025080BDC046001002405555000055555555E5
S3152000026080B582B000AF0200FB1D1A70FB1D1B7803
S315200002701800FFF7ADFFFB1D1B781800FFF7A8FF3E
S3152000028003001800BD4602B080BD80B582B000AF25
S315200002900200FB1D1A70BB1D0A1C1A70154AFB1D95
S315200002A01B785375BB1D1B781800FFF701FF00F064
S315200002B035FB4020FFF7ACFE00F030FB4020FFF777
S315200002C0CFFEBB1D1B780822134004D00820FFF761
S315200002D0EFFEFFF748FFBB1D1B781022134004D00A
S315200002E01020FFF7E5FEFFF73EFFC046BD4602B0F1
S315200002F080BDC0460010024080B582B000AF02002B
S31520000300FB1D1A70BB1D0A1C1A704020FFF7A8FEA1
S31520000310BB1D1B781800FFF7CBFE0320FFF7A0FEBE
S31520000320BB1D1A78FB1D1B7811001800FFF7ADFFC7
S31520000330C046BD4602B080BD80B582B000AF020087
S31520000340FB1D1A70BB1D0A1C1A704020FFF788FE81
S31520000350BB1D1B781800FFF7ABFE0120FFF758FEE8
S315200003600220FFF77DFEBB1D1A78FB1D1B781100AE
S315200003701800FFF78AFFC046BD4602B080BD80B593
S3152000038082B000AFBB1D00221A7023E0BB1D1B7874
S31520000390482252421343DBB218211800FFF7ACFF64
S315200003A018214020FFF7A8FFFB1D00221A7008E045
S315200003B018210020FFF7C0FFFB1D1A78FB1D013214
S315200003C01A70FB1D1B783F2BF2D9BB1D1A78BB1D5B
S315200003D001321A70BB1D1B78072BD7D9C046C046E1
S315200003E0BD4602B080BDF0B589B000AFF860B960F7
S315200003F07A60FB68002B00DCB5E0BB68002B00DCD4
S31520000400B1E0FB68802B00DDADE0BB68402B00DD52
S31520000410A9E0BB68013B002B00DA0733DB10BB6188
S31520000420BB68013B524A134004D5013B0822524285
S3152000043013430133072B2CD89A004E4BD3181B6835
S315200004409F461F23FB1801221A7022E01F23FB1848
S3152000045002221A701DE01F23FB1804221A7018E0CE
S315200004601F23FB1808221A7013E01F23FB181022E3
S315200004701A700EE01F23FB1820221A7009E01F2392
S31520000480FB1840221A7004E01F23FB1880221A70E2
S31520000490C0467B68002B05D11F22BB18BA181278DC
S315200004A0D2431A70FB68402B07DD1E23FB1810224F
S315200004B01A70FB68413BFB6006E01E23FB180822EE
S315200004C01A70FB68013BFB60FB685BB2402213435A
S315200004D05BB2DAB21E257B191B7819001000FFF7D4
S315200004E00BFFBB695BB24822524213435BB2DAB2BE
S315200004F07B191B7819001000FFF7FEFE1726BC1982
S315200005007B191B781800FFF7ABFE03002370FB68EE
S315200005105BB2402213435BB2DAB27B191B78190017
S315200005201000FFF7E9FE7B68002B08D01F22BB18BE
S31520000530B918BA19097812780A431A7008E01F22E6
S31520000540BB18BA1817217918127809780A401A7038
S315200005501E23FB181A781F23FB181B78110018007E
S31520000560FFF7EAFE00E0C046BD4609B0F0BDC04632
S31520000570070000809011002090B583B000AF78600E
S315200005807B68DB68002B22DC664B5B685A1C654B5C
S315200005905A6000F0CFFB644B5B6830331900634B25
S315200005A00122180000F0CEFB5E4B5B683033190049
S315200005B05F4B0222180000F0C5FB7B685B6A7868F7
S315200005C0202240219847C82000F0CCF9A5E07B687E
S315200005D0DB68802B22DD544B5B685A1C524B5A60D9
S315200005E000F0A8FB504B5B68303319004F4B0122BB
S315200005F0180000F0A7FB4B4B5B68303319004C4BBF
S315200006000222180000F09EFB7B685B6A7868202235
S3152000061040219847C82000F0A5F97EE07B681B6939
S31520000620022B08DD7B681A697B681B689B68402162
S31520000630CB1A9A4205DB7B689B685A427B689A6094
S315200006406BE07B68DA68384B1B68DB6806339A42B6
S315200006502DDC354B1B681B699A1E7B681B699A42E9
S3152000066025DC7B681A69304B1B6819692E4B1B6881
S315200006701B689B68CB1801339A4218DC2A4B1B68EF
S31520000680DB68DA1E7B68DB689A4210DC7B685B6875
S315200006905A427B685A607B685C6A234B1B68DB681E
S315200006A0591D7B681A697B681800A04735E07B686E
S315200006B0DA681C4B1B68DB68063B9A422DDB194B1C
S315200006C01B681B699A1E7B681B699A4225DC7B681E
S315200006D01A69144B1B681969124B1B681B689B68A7
S315200006E0CB1801339A4218DC0E4B1B68DB68DA1CE8
S315200006F07B68DB689A4210DB7B685B685A427B68C2
S315200007005A607B685C6A074B1B68DB68591F7B68ED
S315200007101A697B681800A047FFE7C046BD4603B0AC
S3152000072090BDC046701100205011002058110020A5
S315200007307811002080B584B000AFF860B9607A6087
S31520000740FB68BA685A60FB687A689A60C046BD46FC
S3152000075004B080BD80B584B000AF78600023FB6014
S315200007601CE07B68DA687B681968FB6804335B00E9
S31520000770CB1804331B78D0187B681A697B681968F4
S31520000780FB6804335B00CB1805331B78D318012292
S315200007901900FFF728FEFB680133FB60FB680D2B71
S315200007A0DFDDC046C046BD4604B080BD80B584B0FE
S315200007B000AF78600023FB601CE07B68DA687B680A
S315200007C01968FB6804335B00CB1804331B78D018F8
S315200007D07B681A697B681968FB6804335B00CB1851
S315200007E005331B78D31800221900FFF7FCFDFB68A0
S315200007F00133FB60FB680D2BDFDDC046C046BD46DE
S3152000080004B080BD80B584B000AFF860B9607A606E
S31520000810FB68BA68DA60FB687A681A61C046BD462A
S3152000082004B080BD80B582B000AF78607B681800C8
S31520000830FFF7BCFF7B689B6A7A68100098477B6845
S31520000840DA687B685B68D2187B68DA607B681A692D
S315200008507B689B68D2187B681A617B681800FFF753
S3152000086079FFC046BD4602B080BD80B582B000AFDC
S3152000087078607B681800FFF799FF7B681B69032B5C
S315200008800BDD7B689B68002B07DA7B681A697B681F
S315200008909B68D2187B681A6113E07B681A697B68AB
S315200008A01B689B683E21CB1A9A420ADA7B689B68B2
S315200008B0002B06DD7B681A697B689B68D2187B68EB
S315200008C01A617B6800229A607B681800FFF742FF56
S315200008D0C046BD4602B080BD80B500AF0C4B00229D
S315200008E01A600C4B29221A600B4B00221A60084B07
S315200008F005221A60C046064B1A6880235B02134005
S31520000900F9D0034B00221A60C046BD4680BDC046C2
S3152000091010E000E014E000E018E000E080B500AF51
S31520000920FFF7DAFFFFF7D8FFC046BD4680BD80B58A
S3152000093084B000AF78600023FB600AE0FFF7CCFFAD
S31520000940FFF7CAFFFFF7C8FFFFF7C6FFFB680133B3
S31520000950FB60FB687A689A42F0D8C046C046BD461E
S3152000096004B080BD80B582B000AF78600120FFF76B
S31520000970DEFFC046BD4602B080BD80B582B000AF66
S3152000098001237B6019E07B68180000F023F800F053
S315200009904DF803003B603B68002B0BD0002000F095
S315200009A019F87B68013B9A003B68013BD318084A3B
S315200009B0D35C09E07B6801337B607B68042BE2DD36
S315200009C0002000F007F8FF231800BD4602B080BDC6
S315200009D06C10002080B582B000AF0200FB1D1A709B
S315200009E0FB1D1B78042B18D89A000E4BD3181B68B6
S315200009F09F460D4B10225A750FE00B4B20225A753D
S31520000A000BE0094B40225A7507E0074B80225A75A6
S31520000A1003E0054B00225A75C046C046BD4602B0CB
S31520000A2080BDC046B0110020000C024080B582B0C7
S31520000A3000AF124AFB1D527C1A70FB1D1B78082240
S31520000A40134001D0042315E0FB1D1B78042213401C
S31520000A5001D003230EE0FB1D1B780222134001D098
S31520000A60022307E0FB1D1B780122134001D001233E
S31520000A7000E000231800BD4602B080BD000C0240F5
S31520000A8080B582B000AF0200FB1D1A70FB1D1B78DB
S31520000A900F2B03D9064B00221A7505E0FB1D1B7888
S31520000AA00349044AD35C0B75C046BD4602B080BDDF
S31520000AB0000C02405C10002080B500AFC04600F05C
S31520000AC0F9F803001A0080231340802BF7D0082062
S31520000AD0FFF72DFF382000F0A9F82720FFF727FF82
S31520000AE00E2000F0A3F82720FFF721FF062000F0B4
S31520000AF09DF82720FFF71BFFC046BD4680BD80B569
S31520000B0084B000AF786039607B68013BFB603B684E
S31520000B10022B02D1FB684033FB60FB685BB280226C
S31520000B20524213435BB2DBB2180000F07FF8C04696
S31520000B30BD4604B080BD80B582B000AF0200FB1D6B
S31520000B401A70C04600F0B6F803001A00802313403E
S31520000B50802BF7D00820FFF7EAFEFB1D1B78180034
S31520000B6000F079F82B20FFF7E2FEC046BD4602B022
S31520000B7080BD80B584B000AF0200FB1D1A700C4A00
S31520000B800F217B18127D1A70FA1D7B1812781B789C
S31520000B901343DAB208007B1804210A431A70044A68
S31520000BA03B181B781375C046BD4604B080BDC046B1
S31520000BB00010024080B584B000AF0200FB1D1A7001
S31520000BC00D4A0F217B18127D1A70FB1D1B785BB214
S31520000BD0DB435BB27A18127852B213405BB204221E
S31520000BE013435AB27B181A70034A7B181B78137565
S31520000BF0C046BD4604B080BD0010024080B582B01C
S31520000C0000AF0200FB1D1A704020FFF7B2FF064A14
S31520000C10FB1D1B785375FFF75FFE4020FFF7CAFFC9
S31520000C20C046BD4602B080BD0010024080B582B0ED
S31520000C3000AF0200FB1D1A700120FFF7BBFF022048
S31520000C40FFF7B8FFFB1D1B781800FFF7D7FFC0463C
S31520000C50BD4602B080BD80B582B000AF0200FB1D4C
S31520000C601A700120FFF785FF0220FFF7A3FFFB1D67
S31520000C701B781800FFF7C2FFC046BD4602B080BDF4
S31520000C8080B582B000AF4020FFF773FFFFF724FE48
S31520000C90FFF722FE064AFB1D527C1A704020FFF702
S31520000CA089FFFB1D1B781800BD4602B080BDC046DB
S31520000CB00010024090B583B000AF0B4B0B4A1A6070
S31520000CC00120FFF777FF0220FFF753FFFC1DFFF7F8
S31520000CD0D7FF03002370044B054A1A60FB1D1B78BF
S31520000CE01800BD4603B090BD0010024055550000C7
S31520000CF05555555580B582B000AF0A4B0A4A1A6041
S31520000D000120FFF736FF0220FFF733FF074AFB1DBE
S31520000D101A70044B064A1A60FB1D1B781800BD4644
S31520000D2002B080BD0010024055550000810C002005
S31520000D305555555580B500AF0120FFF777FFC046C2
S31520000D40BD4680BD80B582B000AF78600800110036
S31520000D50FB1C021C1A70BB1C0A1C1A70BB1C1B78BD
S31520000D6019000120FFF7CBFE06E07B685A1C7A604B
S31520000D701B781800FFF7DFFE7B681B78002BF4D169
S31520000D80FB1C1B787F2B04D8FB1C1B781800FFF755
S31520000D90D2FEC046BD4602B080BD80B500AF084B2E
S31520000DA0084A1A60084B094A1A60074BF0221201BA
S31520000DB09A80054B064ADA60C046BD4680BDC046CD
S31520000DC00010024055555555000C0240555500550A
S31520000DD00000AAAA80B584B000AFF860B9607A6036
S31520000DE0BB6800225A607B6800225A60BB681B6879
S31520000DF00622DA60BB681B6820221A617B681B68A2
S31520000E007A22DA607B681B6820221A61FFF7B7FA1C
S31520000E10FFF790FF194B5B68DBB23033DBB259B278
S31520000E20174B01221800FFF78DFF164B5B68DBB2CC
S31520000E303033DBB259B2144B02221800FFF782FF7F
S31520000E40BB681B68DA69BB681B68180090477B681B
S31520000E501B68DA697B681B6818009047FB681B6A69
S31520000E60F86801220221984796235B001800FFF7B5
S31520000E7079FDC046BD4604B080BDC0465011002055
S31520000E80581100207011002078110020B0B58AB0CA
S31520000E9000AF6A4B3B626A4BFB616A4BBB61FFF753
S31520000EA07CFFFFF709FEFFF730F9BA69F9693B6A5B
S31520000EB01800FFF78FFF3B6ADB693A6A10009847F4
S31520000EC00A20FFF74FFD17257C19FFF756FD030073
S31520000ED023705D4A7B191B7813757B191B78092BA8
S31520000EE03DD04DDC072B17D04ADC012B02D0032B3B
S31520000EF023D045E0FB691B681C6AFB691B6802223C
S31520000F00524200211800A047FB691B68DA69FB6979
S31520000F101B681800904733E0FB691B681C6AFB6955
S31520000F201B68022200211800A047FB691B68DA69AA
S31520000F30FB691B681800904722E0BB691B681C6A86
S31520000F40BB691B680222524200211800A047BB69D8
S31520000F501B68DA69BB691B681800904710E0BB69FB
S31520000F601B681C6ABB691B68022200211800A04767
S31520000F70BB691B68DA69BB691B6818009047C046C5
S31520000F80FB695B68082B03DCBB695B68082B92DD79
S31520000F903B002E4A13CA13C31168196091889980A1
S31520000FA092799A712723FB1801221A70FB695B68D4
S31520000FB0082B10DDFFF7BEFE01235942244B0122E8
S31520000FC01800FFF7BFFE012359423B0002221800FA
S31520000FD0FFF7B8FE2CE0BB695B68082B28DDFFF71E
S31520000FE0A9FE012359421B4B01221800FFF7AAFE36
S31520000FF0012359423B0002221800FFF7A3FE17E007
S3152000100016257C19FFF7B9FC0300237027243B190A
S315200010103A1912781A707B191B78052B08D1BA69F0
S31520001020F9693B6A1800FFF7D5FE3B1900221A70B2
S315200010302723FB181B78002BE2D13CE72411002044
S315200010405011002070110020000C0240C411002015
S315200010506211002082110020000000003F065B4F35
S31520001060666D7D077F6F777C395E79710102030A91
S315200010700405060B0708090C0E000F0D0C000000D6
S31520001080040000000400000000010002010001012C
S31520001090010201030200020102020203030103020C
S315200010A0000000000E000000020000000600000004
S315200010B000000100000101010002010200030103FA
S315200010C0000401040005010500060106A410002005
S315200010D000000000000000000F00000020000000BB
S315200010E055070020AD0700206B080020350700209B
S315200010F00508002000000000A410002000000000C9
S3152000110000000000710000002000000055070020AC
S31520001110AD0700206B0800203507002005080020B9
S31520001120000000007C1000200000000000000000ED
S31520001130400000002000000055070020AD070020D9
S315200011402508002035070020050800207905002005
S31520001150CC10002000000000706C61796572313A75
S315200011602000506C61796572312077696E730000BA
S31520001170F810002000000000506C61796572323A48
S315200011802000504C61796572322077696E730000B9
S31520001190420400204C040020560400206004002055
S315200011A06A040020740400207E04002088040020A5
S315200011B0120A0020F2090020FA090020020A002063
S315200011C00A0A00205072657373203520746F2072CE
S30D200011D065737461727400005E
S70520000000DA
