S01300002E2F44656275672F504F4E472E7331393A
S315200000000248854600F034FFFEE7C04600C00120C6
S3152000001080B584B000AF0200FB1D1A700F4A0F2076
S315200000203B18127D1A703B183A18127804218A431D
S315200000301A70FB1D1B785BB2042293435AB23B18FD
S315200000401B785BB213435AB23B181A70034A3B180B
S315200000501B781375C046BD4604B080BD0010024013
S3152000006080B584B000AF0200FB1D1A700F4A0F2026
S315200000703B18127D1A703B183A18127804218A43CD
S315200000801A70FB1D1B785BB2DB435BB23A18127801
S3152000009052B213405AB23B181A70044A3B181B78C6
S315200000A01375C046BD4604B080BDC0460010024050
S315200000B080B582B000AF0200FB1D1A70FB1D1B78B5
S315200000C0082B0CD002DC002B05D01AE0102B0DD00B
S315200000D0182B12D015E01820FFF7C2FF11E00820D8
S315200000E0FFF796FF1020FFF7BBFF0AE01020FFF76F
S315200000F08FFF0820FFF7B4FF03E01820FFF788FFE3
S31520000100C046C046BD4602B080BD80B500AF402087
S31520000110FFF77EFF0A2000F01CFC7820FFF7A0FFE7
S315200001201E2000F030FC2020FFF772FF642000F034
S315200001302AFC18213E2000F0DFF818213F2000F08D
S31520000140DBF81821C02000F0D7F81821402000F055
S31520000150D3F81821B82000F0CFF80020FFF7A8FF29
S31520000160C046BD4680BD80B582B000AF4020FFF7B7
S3152000017077FF144B144A1A600120FFF771FF022003
S31520000180FFF746FF00F0DCFB4020FFF741FF00F0C1
S31520000190D7FB0C4B5B7CDAB2FB1D7F218A431A709E
S315200001A04020FFF75DFF00F0CBFBFB1D1B78002BEB
S315200001B000D0E9E7C046034B044A1A60C046BD4654
S315200001C002B080BD001002405555000055555555CA
S315200001D080B584B000AF0200FB1D1A704020FFF7E7
S315200001E03FFF1C4B1C4A1A600320FFF711FFFB1D23
S315200001F01B781800FFF75CFF00F0A2FB4020FFF7FA
S3152000020007FF00F09DFB134A0F23FB18527C1A7040
S315200002104020FFF725FF0F4B104A1A60FB1D1B7865
S315200002200822134004D00820FFF742FFFFF79BFF68
S31520000230FB1D1B781022134004D01020FFF738FF37
S31520000240FFF791FF0F23FB181B781800BD4604B05B
S3152000025080BDC046001002405555000055555555E5
S3152000026080B582B000AF0200FB1D1A70FB1D1B7803
S315200002701800FFF7ADFFFB1D1B781800FFF7A8FF3E
S3152000028003001800BD4602B080BD80B582B000AF25
S315200002900200FB1D1A70BB1D0A1C1A70154AFB1D95
S315200002A01B785375BB1D1B781800FFF701FF00F064
S315200002B047FB4020FFF7ACFE00F042FB4020FFF753
S315200002C0CFFEBB1D1B780822134004D00820FFF761
S315200002D0EFFEFFF748FFBB1D1B781022134004D00A
S315200002E01020FFF7E5FEFFF73EFFC046BD4602B0F1
S315200002F080BDC0460010024080B582B000AF02002B
S31520000300FB1D1A70BB1D0A1C1A704020FFF7A8FEA1
S31520000310BB1D1B781800FFF7CBFE0320FFF7A0FEBE
S31520000320BB1D1A78FB1D1B7811001800FFF7ADFFC7
S31520000330C046BD4602B080BD80B582B000AF020087
S31520000340FB1D1A70BB1D0A1C1A704020FFF788FE81
S31520000350BB1D1B781800FFF7ABFE0120FFF758FEE8
S315200003600220FFF77DFEBB1D1A78FB1D1B781100AE
S315200003701800FFF78AFFC046BD4602B080BD80B593
S3152000038082B000AFBB1D00221A7023E0BB1D1B7874
S31520000390482252421343DBB218211800FFF7ACFF64
S315200003A018214020FFF7A8FFFB1D00221A7008E045
S315200003B018210020FFF7C0FFFB1D1A78FB1D013214
S315200003C01A70FB1D1B783F2BF2D9BB1D1A78BB1D5B
S315200003D001321A70BB1D1B78072BD7D9C046BD46E4
S315200003E002B080BDB0B588B000AFF860B9607A6061
S315200003F0FB68002B00DCB6E0BB68002B00DCB2E01B
S31520000400FB68802B00DDAEE0BB68402B00DDAAE058
S31520000410BB68013B002B00DA0733DB10BB61BB68EE
S31520000420013B534A134004D5013B08225242134351
S315200004300133072B2CD89A004E4BD3181B689F46A6
S315200004401F23FB1801221A7022E01F23FB18022209
S315200004501A701DE01F23FB1804221A7018E01F23B0
S31520000460FB1808221A7013E01F23FB1810221A709B
S315200004700EE01F23FB1820221A7009E01F23FB1809
S3152000048040221A7004E01F23FB1880221A70C046EF
S315200004907B68002B05D11F22BB18BA181278D243CD
S315200004A01A70FB68402B07DD1E23FB1810221A70DA
S315200004B0FB68413BFB6006E01E23FB1808221A70EE
S315200004C0FB68013BFB60FB685BB2402213435BB2D7
S315200004D0DAB21E257B191B7819001000FFF70CFFD6
S315200004E0BB695BB24822524213435BB2DAB27B1934
S315200004F01B7819001000FFF7FFFE1723FC187B1945
S315200005001B781800FFF7ACFE03002370FB685BB274
S31520000510402213435BB2DAB27B191B781900100014
S31520000520FFF7EAFE7B68002B09D01F22BB18B918FB
S315200005301722BA18097812780A431A7008E01F227F
S31520000540BB18BA1817217918127809780A401A7038
S315200005501E23FB181A781F23FB181B78110018007E
S31520000560FFF7EAFE00E0C046BD4608B0B0BDC04673
S31520000570070000806C11002090B583B000AF786032
S315200005807B68DB68002B22DC704B5B685A1C6F4B48
S315200005905A6000F0CBFB6E4B5B68303319006D4B15
S315200005A00122180000F0CAFB684B5B683033190043
S315200005B0694B0222180000F0C1FB7B685B6A7868F1
S315200005C0202240219847C82000F0DDF9B9E07B6859
S315200005D0DB68802B22DD5E4B5B685A1C5C4B5A60C5
S315200005E000F0A4FB5A4B5B6830331900594B0122AB
S315200005F0180000F0A3FB554B5B6830331900564BAF
S315200006000222180000F09AFB7B685B6A7868202239
S3152000061040219847C82000F0B6F992E07B681B6914
S31520000620022B08DD7B681A697B681B689B68402162
S31520000630CB1A9A4205DB7B689B685A427B689A6094
S315200006407FE07B68DA68424B1B68D9687B681B6849
S315200006505B68CB189A4234DA3D4B1B681B699A1E9D
S315200006607B681B699A422CDC7B681A69384B1B68AD
S315200006701969374B1B681B689B68CB1801339A4254
S315200006801FDC7B68DA68324B1B68DB68043B9A42C6
S3152000069017DD7B685B685A427B685A607B685C6AB8
S315200006A02B4B1B68DB68591D7B681A697B68180011
S315200006B0A047274B1B685A69254B1B681800904793
S315200006C03FE07B68DA68214B1B68D9687B681B682A
S315200006D05B68CB1A9A4234DD1C4B1B681B699A1E39
S315200006E07B681B699A422CDC7B681A69174B1B684E
S315200006F01969164B1B681B689B68CB1801339A42F5
S315200007001FDC7B68DA68114B1B68DB6804339A426E
S3152000071017DA7B685B685A427B685A607B685C6A3A
S315200007200A4B1B68DB68591F7B681A697B681800AF
S31520000730A047064B1B685A69044B1B681800904754
S31520000740FFE7C046BD4603B090BDC0464C11002011
S315200007502C110020341100205411002080B584B0C3
S3152000076000AFF860B9607A60FB68BA685A60FB68C7
S315200007707A689A60C046BD4604B080BD80B584B014
S3152000078000AF78600023FB601CE07B68DA687B683A
S315200007901968FB6804335B00CB1804331B78D01828
S315200007A07B681A697B681968FB6804335B00CB1881
S315200007B005331B78D31801221900FFF713FEFB68B7
S315200007C00133FB60FB680D2BDFDDC046BD4604B060
S315200007D080BD80B584B000AF78600023FB601CE04C
S315200007E07B68DA687B681968FB6804335B00CB1882
S315200007F004331B78D0187B681A697B681968FB68F4
S3152000080004335B00CB1805331B78D318002219005C
S31520000810FFF7E8FDFB680133FB60FB680D2BDFDD8E
S31520000820C046BD4604B080BD80B584B000AFF86038
S31520000830B9607A60FB68BA68DA60FB687A681A6120
S31520000840C046BD4604B080BD80B582B000AF78609A
S315200008507B681800FFF7BDFF7B689B6A7A681000EB
S3152000086098477B68DA687B685B68D2187B68DA60B1
S315200008707B681A697B689B68D2187B681A617B68DB
S315200008801800FFF77BFFC046BD4602B080BD80B58D
S3152000089082B000AF78607B681800FFF79AFF7B680C
S315200008A01B69032B0BDD7B689B68002B07DA7B68B3
S315200008B01A697B689B68D2187B681A6113E07B688B
S315200008C01A697B681B689B683E21CB1A9A420ADA12
S315200008D07B689B68002B06DD7B681A697B689B68B2
S315200008E0D2187B681A617B6800229A607B681800A0
S315200008F0FFF744FFC046BD4602B080BD80B500AFBD
S315200009000C4B00221A600C4B29221A600B4B00223A
S315200009101A60084B05221A60C046064B1A688023C7
S315200009205B021340F9D0034B00221A60C046BD4635
S3152000093080BDC04610E000E014E000E018E000E0D2
S3152000094080B500AFFFF7DAFFFFF7D8FFC046BD46F8
S3152000095080BD80B584B000AF78600023FB600AE0DC
S31520000960FFF7CCFFFFF7CAFFFFF7C8FFFFF7C6FF69
S31520000970FB680133FB60FB687A689A42F0D8C04670
S31520000980BD4604B080BD80B582B000AF78607A687D
S3152000099013005B019B1A9B009B18DB001800FFF7D6
S315200009A0D8FFC046BD4602B080BD80B582B000AF3C
S315200009B001237B6019E07B68180000F023F800F023
S315200009C04DF803003B603B68002B0BD0002000F065
S315200009D019F87B68013B9A003B68013BD318084A0B
S315200009E0D35C09E07B6801337B607B68042BE2DD06
S315200009F0002000F007F8FF231800BD4602B080BD96
S31520000A004810002080B582B000AF0200FB1D1A708E
S31520000A10FB1D1B78042B18D89A000E4BD3181B6885
S31520000A209F460D4B10225A750FE00B4B20225A750C
S31520000A300BE0094B40225A7507E0074B80225A7576
S31520000A4003E0054B00225A75C046C046BD4602B09B
S31520000A5080BDC0468C110020000C024080B582B0BB
S31520000A6000AF124AFB1D527C1A70FB1D1B78082210
S31520000A70134001D0042315E0FB1D1B7804221340EC
S31520000A8001D003230EE0FB1D1B780222134001D068
S31520000A90022307E0FB1D1B780122134001D001230E
S31520000AA000E000231800BD4602B080BD000C0240C5
S31520000AB080B500AFC04600F0F9F803001A00802385
S31520000AC01340802BF7D00820FFF743FF382000F093
S31520000AD0A9F82720FFF73DFF0E2000F0A3F82720D6
S31520000AE0FFF737FF062000F09DF82720FFF731FF9C
S31520000AF0C046BD4680BD80B584B000AF7860396001
S31520000B007B68013BFB603B68022B02D1FB684033CC
S31520000B10FB60FB685BB28022524213435BB2DBB2BE
S31520000B20180000F07FF8C046BD4604B080BD80B5F1
S31520000B3082B000AF0200FB1D1A70C04600F0B6F866
S31520000B4003001A0080231340802BF7D00820FFF7DC
S31520000B5000FFFB1D1B78180000F079F82B20FFF70B
S31520000B60F8FEC046BD4602B080BD80B584B000AF59
S31520000B700200FB1D1A700C4A0F217B18127D1A7079
S31520000B80FA1D7B1812781B781343DAB208007B18FB
S31520000B9004210A431A70044A01007B181B78137536
S31520000BA0C046BD4604B080BD0010024080B584B06A
S31520000BB000AF0200FB1D1A700D4A0F217B18127D13
S31520000BC01A70FB1D1B785BB2DB435BB27A18127876
S31520000BD052B213405BB2042213435AB27B181A70E6
S31520000BE0034A7B181B781375C046BD4604B080BDEA
S31520000BF00010024080B582B000AF0200FB1D1A70C3
S31520000C004020FFF7B2FF064AFB1D1B785375FFF7FE
S31520000C1075FE4020FFF7CAFFC046BD4602B080BD24
S31520000C200010024080B582B000AF0200FB1D1A7092
S31520000C300120FFF7BBFF0220FFF7B8FFFB1D1B7843
S31520000C401800FFF7D7FFC046BD4602B080BD80B56D
S31520000C5082B000AF0200FB1D1A700120FFF785FF4E
S31520000C600220FFF7A3FFFB1D1B781800FFF7C2FF2A
S31520000C70C046BD4602B080BD80B582B000AF4020E0
S31520000C80FFF773FFFFF73AFEFFF738FE064AFB1D14
S31520000C90527C1A704020FFF789FFFB1D1B78180035
S31520000CA0BD4602B080BDC0460010024090B583B05C
S31520000CB000AF0B4B0B4A1A600120FFF777FF02208B
S31520000CC0FFF753FFFC1DFFF7D7FF03002370044BEC
S31520000CD0054A1A60FB1D1B781800BD4603B090BD5F
S31520000CE000100240555500005555555580B582B027
S31520000CF000AF0A4B0A4A1A600120FFF736FF02208E
S31520000D00FFF733FF074AFB1D1A70044B064A1A6089
S31520000D10FB1D1B781800BD4602B080BD00100240A6
S31520000D2055550000790C00205555555580B500AF16
S31520000D300120FFF777FFC046BD4680BD80B582B053
S31520000D4000AF786008001100FB1C021C1A70BB1C47
S31520000D500A1C1A70BB1C1B7819000120FFF7CBFE5A
S31520000D6006E07B685A1C7A601B781800FFF7DFFEC6
S31520000D707B681B78002BF4D1FB1C1B787F2B04D8B7
S31520000D80FB1C1B781800FFF7D2FEC046BD4602B0FA
S31520000D9080BD80B500AF044B044A1A60044B054A57
S31520000DA01A60C046BD4680BD0010024055555555B7
S31520000DB0000C02405555005580B584B000AFF86050
S31520000DC0B9607A60BB6800225A607B6800225A604C
S31520000DD0BB681B680622DA60BB681B6820221A6182
S31520000DE07B681B687A22DA607B681B6820221A617E
S31520000DF0FFF7C5FAFFF79AFF194B5B68DBB2303372
S31520000E00DBB259B2174B01221800FFF797FF164B9A
S31520000E105B68DBB23033DBB259B2144B02221800C6
S31520000E20FFF78CFFBB681B68DA69BB681B68180074
S31520000E3090477B681B68DA697B681B6818009047B7
S31520000E40FB681B6AF86801220121984796235B00FC
S31520000E501800FFF798FDC046BD4604B080BDC046C9
S31520000E602C110020341100204C1100205411002098
S31520000E70B0B58AB000AF694B3B62694BFB61694BE9
S31520000E80BB61FFF786FFFFF713FEFFF73EF9BA694E
S31520000E90F9693B6A1800FFF78FFF3B6ADB693A6AFC
S31520000EA0100098470A20FFF76EFD17257C19FFF7DB
S31520000EB07CFD030023707B191B78032B2BD002DCCF
S31520000EC0012B05D04AE0072B14D0092B35D045E05D
S31520000ED0FB691B681C6AFB69186802235B421A00BF
S31520000EE00021A047FB691B68DA69FB691B681800AB
S31520000EF0904733E0FB691B681C6AFB691B6802226A
S31520000F0000211800A047FB691B68DA69FB691B688A
S31520000F101800904722E0BB691B681C6ABB691868E9
S31520000F2002235B421A000021A047BB691B68DA69CD
S31520000F30BB691B681800904710E0BB691B681C6AD8
S31520000F40BB691B68022200211800A047BB691B68E9
S31520000F50DA69BB691B6818009047C046FB695B6865
S31520000F60082B03DCBB695B68082B96DD3B002E4A09
S31520000F7013CA13C3116819609188998092799A715E
S31520000F802723FB1801221A70FB695B68082B10DDEA
S31520000F90FFF7CCFE01235942244B01221800FFF70C
S31520000FA0CDFE012359423B0002221800FFF7C6FE60
S31520000FB02DE0BB695B68082B29DDFFF7B7FE01230F
S31520000FC059421B4B01221800FFF7B8FE0123594254
S31520000FD03B0002221800FFF7B1FE18E016257C1907
S31520000FE0FFF7E3FC030023702722BB18BA181278F8
S31520000FF01A707B191B78052B09D1BA69F9693B6AE6
S315200010001800FFF7D9FE2723FB1800221A70272382
S31520001010FB181B78002BE1D13FE7C04600110020CA
S315200010202C1100204C110020A01100203E11002080
S315200010305E110020000000003F065B4F666D7D07B5
S315200010407F6F777C395E79710102030A0405060BEE
S315200010500708090C0E000F0D0C000000040000000C
S315200010600400000000010002010001010102010349
S315200010700200020102020203030103020000000033
S315200010800E00000002000000060000000000010023
S315200010900001010100020102000301030004010412
S315200010A00005010500060106801000200000000052
S315200010B0000000000F000000200000007D07002037
S315200010C0D30700208F0800205D0700202908002074
S315200010D0000000008010002000000000000000003A
S315200010E071000000200000007D070020D3070020AB
S315200010F08F0800205D07002029080020000000003E
S3152000110058100020000000000000000040000000F1
S31520001110200000007D070020D3070020490800207A
S315200011205D0700202908002079050020A81000204E
S3152000113000000000706C61796572313A2000506CB5
S3152000114061796572312077696E730000D4100020B2
S3152000115000000000506C61796572323A2000504CD4
S3152000116061796572322077696E7300004004002031
S315200011704A040020540400205E0400206804002055
S31520001180720400207C04002086040020420A0020ED
S31520001190220A00202A0A0020320A00203A0A0020C9
S315200011A05072657373203520746F20726573746175
S309200011B0727400002F
S70520000000DA
