S01700002E2F44656275672F657874695F6972712E73313905
S315200000000248854600F07AF8FEE7C04600C0012087
S3152000001080B500AF094B1B680822134004D0084B5B
S315200000201B685A1C064B1A60044B1A68034B08219E
S315200000300A431A60C046BD4680BDC046143C0140F6
S315200000402001002080B500AF1F4B18221A601F4BDD
S315200000501A681E4B8021C9010A431A601C4B1D4A8F
S315200000601A601D4B1D4A1A601D4B1B889BB21C4AE9
S315200000701B051B0D9BB21380194B1B889BB218497D
S315200000808022D20113439BB20B80164B1A68154B64
S3152000009008210A431A60144B1A68134B08210A4395
S315200000A01A60124B1A68114B08218A431A60104BAA
S315200000B0104A1A60104B1A680F4B802189000A4398
S315200000C01A60C046BD4680BD3038024044380240E2
S315200000D008ED00E000C00120000C0240555500004C
S315200000E008380140003C0140083C01400C3C0140DE
S315200000F064C001201100002000E100E080B500AFBF
S31520000100FFF7A0FF044B04221A70044B1A68024B17
S31520000110D2B21A70F9E7C046140C02402001002022
S3092000012000000000B5
S70520000000DA
