S01500002E2F44656275672F6B65797061642E733139EE
S315200000000248854600F0BCF8FEE7C04600C0012045
S3152000001080B500AF024B034A1A60C046BD4680BD7C
S31520000020000C02405555005590B587B000AF3B00F7
S31520000030164A13CA13C312681A6001237B6119E09A
S315200000407B69180000F024F800F04CF803003B61AF
S315200000503B69002B0BD0002000F01AF87B69013B8E
S315200000609A003B69013BD3183A00D35C09E07B69CF
S3152000007001337B617B69042BE2DD002000F008F868
S31520000080FF231800BD4607B090BDC046980100204A
S3152000009080B582B000AF78607B68042B19D87B6866
S315200000A09A000E4BD3181B689F460D4B10221A70D0
S315200000B00FE00B4B20221A700BE0094B40221A70DE
S315200000C007E0074B80221A7003E0054B00221A70C6
S315200000D0C046C046BD4602B080BDC046A80100202D
S315200000E0150C024080B582B000AF124AFB1D127873
S315200000F01A70FB1D1B780822134001D0042315E03B
S31520000100FB1D1B780422134001D003230EE0FB1DA8
S315200001101B780222134001D0022307E0FB1D1B7827
S315200001200122134001D0012300E000231800BD4620
S3152000013002B080BD110C0240B0B586B000AF0200FF
S31520000140FB1D1A70FB1D1B780E2B0DD808203B18A3
S31520000150094A32CA32C312681A60FB1D1B78074946
S315200001603A18D35C0B7002E0044B00221A70C0468A
S31520000170BD4606B0B0BDC046BC010020140C0240EE
S3152000018080B500AFFFF744FFFFF74EFF03001800CE
S31520000190FFF7D2FFF8E7C0460102030A0405060B63
S315200001A00708090C0E000F0DCA000020AA00002027
S315200001B0B2000020BA000020C20000203F065B4F9C
S311200001C0666D7D077F6F777C392E797184
S70520000000DA
