S01600002E2F44656275672F7379737469636B2E73313961
S315200000000248854600F077F8FEE7C04600C001208A
S3152000001080B500AF034B044A1A60C0461800BD469F
S3152000002080BDC046001002405555555580B500AFDD
S315200000300C4B00221A600C4B29221A600B4B002213
S315200000401A60084B05221A60C046064B1A688023A0
S315200000505B021340F9D0034B00221A60C046BD460E
S3152000006080BDC04610E000E014E000E018E000E0AB
S3152000007080B582B000AF78607B68FA2291001800C4
S3152000008000F050F803007B607B6801337B600AE058
S31520000090FFF7CCFFFFF7CAFFFFF7C8FFFFF7C6FF42
S315200000A07B68013B7B607B68002BF1D1C046C04654
S315200000B0BD4602B080BD80B582B000AF78607B6857
S315200000C0FA229100180000F02DF803007B607B686F
S315200000D001337B6007E0FA239B001800FFF7C8FF77
S315200000E07B68013B7B607B68002BF4D1C046C04611
S315200000F0BD4602B080BD80B500AFFFF789FF084B33
S3152000010000221A70FA235B001800FFF7D4FF044B75
S31520000110FF221A70FA235B001800FFF7CCFFEEE7E8
S3152000012014100240002243088B4274D303098B42E9
S315200001305FD3030A8B4244D3030B8B4228D3030C91
S315200001408B420DD3FF22090212BA030C8B4202D333
S315200001501212090265D0030B8B4219D300E0090A5B
S31520000160C30B8B4201D3CB03C01A5241830B8B4264
S3152000017001D38B03C01A5241430B8B4201D34B034D
S31520000180C01A5241030B8B4201D30B03C01A5241B2
S31520000190C30A8B4201D3CB02C01A5241830A8B4237
S315200001A001D38B02C01A5241430A8B4201D34B0220
S315200001B0C01A5241030A8B4201D30B02C01A524184
S315200001C0CDD2C3098B4201D3CB01C01A5241830938
S315200001D08B4201D38B01C01A524143098B4201D372
S315200001E04B01C01A524103098B4201D30B01C01A9D
S315200001F05241C3088B4201D3CB00C01A5241830817
S315200002008B4201D38B00C01A524143088B4201D343
S315200002104B00C01A5241411A00D2014652411046A3
S315200002207047FFE701B5002000F006F802BDC04682
S311200002300029F7D076E770477047C046DB
S70520000000DA
