S01A00002E2F44656275672F7379737469636B5F6972712E733139B2
S315200000000248854600F066F8FEE7C04600C001209B
S3152000001080B500AF044B054A1A60054B054A1A60A5
S31520000020C046BD4680BDC046000C024055555555BC
S315200000303CC001206900002080B500AF074B00229C
S315200000401A60074BA7221A60064B00221A60034B40
S3152000005007221A60C046BD4680BDC04610E000E0BB
S3152000006014E000E018E000E080B500AF0A4B002263
S315200000701A600A4B1B685A1E084B1A60074B1B68EE
S31520000080002B02DDFFF7D8FF02E0054B01221A60A4
S31520000090C046BD4680BDC04610E000E024010020D9
S315200000A02001002080B582B000AF78607B68002BED
S315200000B008D07A68054B1A60054B00221A60FFF7B4
S315200000C0BBFF00E0C046BD4602B080BD2401002033
S315200000D02001002080B500AFFFF79AFF0D4B0022CC
S315200000E01A70FA239B001800FFF7DCFF094BFF224A
S315200000F01A70094B1B68002B05D1084B1B685A1C2C
S31520000100064B1A60F5E7C046024B00221A70C0461D
S31520000110BD4680BD140C024020010020280100208D
S31120000120000000000000000000000000AD
S70520000000DA
