S01700002E2F44656275672F6175746F706F6E672E733139FD
S315200000000248854600F0C0FBFEE7C04600C001203E
S3152000001080B500AF024B034A1A60C046BD4680BD7C
S31520000020001002405555555580B584B000AF0200EA
S31520000030FB1D1A700F4A0F203B1812781A703B18B6
S315200000403A18127804218A431A70FB1D1B785BB27A
S31520000050042293435AB23B181B785BB213435AB21D
S315200000603B181A70034A3B181B781370C046BD46CE
S3152000007004B080BD1410024080B584B000AF0200E9
S31520000080FB1D1A700F4A0F203B1812781A703B1866
S315200000903A18127804218A431A70FB1D1B785BB22A
S315200000A0DB435BB23A18127852B213405AB23B186D
S315200000B01A70044A3B181B781370C046BD4604B01C
S315200000C080BDC0461410024080B582B000AF020049
S315200000D0FB1D1A70FB1D1B78182B1AD01DDC102B4C
S315200000E010D01ADC002B02D0082B04D015E01820E3
S315200000F0FFF7C2FF11E00820FFF796FF1020FFF759
S31520000100BBFF0AE01020FFF78FFF0820FFF7B4FFA0
S3152000011003E01820FFF788FFC046C046BD4602B060
S3152000012080BD80B500AF4020FFF77EFF0A2000F09B
S3152000013004FB7820FFF7A0FF1E2000F019FB2020EB
S31520000140FFF772FF642000F013FB18213E2000F019
S31520000150E3F818213F2000F0DFF81821C02000F036
S31520000160DBF81821402000F0D7F81821B82000F03D
S31520000170D3F80020FFF7A8FFC046BD4680BD80B556
S3152000018082B000AF4020FFF777FF144B144A1A6065
S315200001900120FFF771FF0220FFF746FF00F0C4FAA7
S315200001A04020FFF741FF00F0BFFA0E4B1B78DAB272
S315200001B0FB1D7F218A431A704020FFF75DFF00F068
S315200001C0B3FAFB1D1B78002B00D0E9E7C046034B92
S315200001D0054A1A60C046BD4602B080BD00100240E6
S315200001E055550000111002405555555580B584B01F
S315200001F000AF0200FB1D1A704020FFF73DFF1C4B8D
S315200002001C4A1A600320FFF70FFFFB1D1B781800FE
S31520000210FFF75AFF00F088FA4020FFF705FF00F0AD
S3152000022083FA154A0F23FB1812781A704020FFF71D
S3152000023023FF0F4B114A1A60FB1D1B78082213401F
S3152000024004D00820FFF740FFFFF799FFFB1D1B781E
S315200002501022134004D01020FFF736FFFFF78FFF40
S315200002600F23FB181B781800BD4604B080BDC0467E
S3152000027000100240555500001110024055555555A5
S3152000028080B582B000AF0200FB1D1A70FB1D1B78E3
S315200002901800FFF7ABFFFB1D1B781800FFF7A6FF22
S315200002A003001800BD4602B080BD80B582B000AF05
S315200002B00200FB1D1A70BB1D0A1C1A70154AFB1D75
S315200002C01B781370BB1D1B781800FFF7FDFE00F08E
S315200002D02BFA4020FFF7A8FE00F026FA4020FFF771
S315200002E0CBFEBB1D1B780822134004D00820FFF745
S315200002F0EBFEFFF744FFBB1D1B781022134004D0F2
S315200003001020FFF7E1FEFFF73AFFC046BD4602B0D8
S3152000031080BDC0461510024080B582B000AF0200F5
S31520000320FB1D1A70BB1D0A1C1A704020FFF7A4FE85
S31520000330BB1D1B781800FFF7C7FE0320FFF79CFEA6
S31520000340BB1D1A78FB1D1B7811001800FFF7ADFFA7
S31520000350C046BD4602B080BD80B582B000AF020067
S31520000360FB1D1A70BB1D0A1C1A704020FFF784FE65
S31520000370BB1D1B781800FFF7A7FE0120FFF754FED0
S315200003800220FFF779FEBB1D1A78FB1D1B78110092
S315200003901800FFF78AFFC046BD4602B080BD80B573
S315200003A082B000AFBB1D00221A7023E0BB1D1B7854
S315200003B0482252421343DBB218211800FFF7ACFF44
S315200003C018214020FFF7A8FFFB1D00221A7008E025
S315200003D018210020FFF7C0FFFB1D1A78FB1D0132F4
S315200003E01A70FB1D1B783F2BF2D9BB1D1A78BB1D3B
S315200003F001321A70BB1D1B78072BD7D9C046C046C1
S31520000400BD4602B080BDF0B589B000AFF860B960D6
S315200004107A60FB68002B00DCB5E0BB68002B00DCB3
S31520000420B1E0FB68802B00DDADE0BB68402B00DD32
S31520000430A9E0BB68013B002B00DA0733DB10BB6168
S31520000440BB68013B524A134004D5013B0822524265
S3152000045013430133072B2CD89A004E4BD3181B6815
S315200004609F461F23FB1801221A7022E01F23FB1828
S3152000047002221A701DE01F23FB1804221A7018E0AE
S315200004801F23FB1808221A7013E01F23FB181022C3
S315200004901A700EE01F23FB1820221A7009E01F2372
S315200004A0FB1840221A7004E01F23FB1880221A70C2
S315200004B0C0467B68002B05D11F22BB18BA181278BC
S315200004C0D2431A70FB68402B07DD1E23FB1810222F
S315200004D01A70FB68413BFB6006E01E23FB180822CE
S315200004E01A70FB68013BFB60FB685BB2402213433A
S315200004F05BB2DAB21E257B191B7819001000FFF7B4
S315200005000BFFBB695BB24822524213435BB2DAB29D
S315200005107B191B7819001000FFF7FEFE1726BC1961
S315200005207B191B781800FFF7ABFE03002370FB68CE
S315200005305BB2402213435BB2DAB27B191B781900F7
S315200005401000FFF7E9FE7B68002B08D01F22BB189E
S31520000550B918BA19097812780A431A7008E01F22C6
S31520000560BB18BA1817217918127809780A401A7018
S315200005701E23FB181A781F23FB181B78110018005E
S31520000580FFF7EAFE00E0C046BD4609B0F0BDC04612
S31520000590070000801408002080B584B000AFF86002
S315200005A0B9607A60FB68BA685A60FB687A689A60B4
S315200005B0C046BD4604B080BD80B584B000AF78602B
S315200005C00023FB601CE07B68DA687B681968FB689F
S315200005D004335B00CB1804331B78D0187B681A6968
S315200005E07B681968FB6804335B00CB1805331B78DE
S315200005F0D31801221900FFF706FFFB680133FB60C1
S31520000600FB68132BDFDDC046C046BD4604B080BD67
S3152000061080B584B000AF78600023FB601CE07B6867
S31520000620DA687B681968FB6804335B00CB180433EF
S315200006301B78D0187B681A697B681968FB680433B5
S315200006405B00CB1805331B78D31800221900FFF75F
S31520000650DAFEFB680133FB60FB68132BDFDDC04647
S31520000660C046BD4604B080BD80B582B000AF78607C
S315200006707B681800FFF7CCFF7B68DA687B685B68CD
S31520000680D2187B68DA607B681A697B689B68D21807
S315200006907B681A617B68DB68002B03DD7B68DB687F
S315200006A0802B05DD7B685B685A427B685A6011E0C7
S315200006B07B681B69002B08DD7B681A697B681B68D1
S315200006C09B688021CB1A9A4204DD7B689B685A423C
S315200006D07B689A607B681800FFF76EFFC046BD46B0
S315200006E002B080BD80B500AF0C4B00221A600C4BC7
S315200006F029221A600B4B00221A60084B05221A6029
S31520000700C046064B1A6880235B021340F9D0034B80
S3152000071000221A60C046BD4680BDC04610E000E0FB
S3152000072014E000E018E000E080B500AFFFF7DAFF44
S31520000730FFF7D8FFC046BD4680BD80B584B000AF68
S3152000074078600023FB600AE0FFF7CCFFFFF7CAFFC3
S31520000750FFF7C8FFFFF7C6FFFB680133FB60FB68A6
S315200007607A689A42F0D8C046C046BD4604B080BDDD
S3152000077080B582B000AF78607B681800FFF7DDFF98
S31520000780C046BD4602B080BD80B582B000AF0A4BE0
S315200007907B60FFF73DFCFFF7C4FC7B681B6A78682B
S315200007A00222042198477B68DB697A681000984703
S315200007B02820FFF7DDFFF6E7F00700200C000000F9
S315200007C004000000040000000001000201000101F5
S315200007D001020103020002010202020303010302D5
S315200007E000000000000000000000000000000000E3
S315200007F0BC070020000000000000000001000000EF
S3152000080001000000B905002011060020690600201D
S3152000081099050020620400206C0400207604002044
S31520000820800400208A040020940400209E040020D6
S30920000830A8040020D2
S70520000000DA
